:020000040000FA
:100000000C9445010C9476010C9476010C947601C5
:100010000C9476010C9476010C9476010C94760184
:100020000C9476010C9476010C9476010C94760174
:100030000C9476010C9476010C9476010C94760164
:100040000C9476010C94CF060C9476010C947601F6
:100050000C9476010C9476010C9476010C949B051B
:100060000C9476010C940F060C94E5050C94760123
:100070000C9476010C9476010C9476010C94760124
:100080000C94A1060C9476010C9476010C947601E4
:100090000C9476010C9476010C9476010C94760104
:1000A0000C9476010C9476010C9473060C947601F2
:1000B0000C9476010C9476010C9476010C94450610
:1000C0000C9476010C9476010C9476010C947601D4
:1000D0000C9476010C9476010C9476010C947601C4
:1000E0000C9476010C94CD010C94A8010C94B501EC
:1000F0000C94A0010C94DB010C94AB010C94C9018D
:100100000C94A4010C94BB010C94FD060C94D10139
:100110000C94BF010C94EC020C94B1010C945503A7
:100120000C94C3010C94D7010C94BF020C94FB02F5
:100130000C949C010C941D030C94D6010C940F0399
:100140000C94A2030C949601005EBCE2613FDD8337
:10015000C29C7E20A3FD1F41009D23BE46DB65F8A7
:100160008C11AF32CA57E974000021002400270027
:100170002A002D00300033000101000004010701B6
:100180000A0100002200250028002B002E0031006B
:10019000340002010000050108010B0100000A0BF8
:1001A00002090C0D0E080703040100000000000006
:1001B000000000000000000000000000000000003F
:1001C00000000000000000001211100000000000FC
:1001D000000000000000000000000000000000001F
:1001E0000000000020002300260029002C002F0022
:1001F00032000001000003010601090105050505A3
:10020000070508080808020202020A0A080804048E
:1002100004040101010101010101030303030303BC
:100220000303040707070C0C0C0C0C0C0C0C02024B
:10023000020206060606060606060B0B0B0B0B0B48
:100240000B0B0102102020080810204010204080D5
:10025000020102010804020101020408102040808A
:100260008040201008040201800402018040201018
:100270000804020108040201010204081020408061
:100280000102040810204080FD0611241FBECFEF9C
:10029000D1E2DEBFCDBF00E00CBF12E0A0E0B2E0D3
:1002A000ECEAF5E100E00BBF02C007900D92A2312D
:1002B000B107D9F723E0A2E1B2E001C01D92A53752
:1002C000B207E1F711E0C5E4D1E000E006C02197F4
:1002D0000109802FFE010E94CC0AC434D10780E0BE
:1002E0000807A9F70E94A9070C94D40A0C940000EF
:1002F0008150823108F05AC0E82FF0E08827EC578F
:10030000FE4F8F4F0C94CC0AA401A80196019C01CA
:10031000A001D601AB01B101B501BB01BF01C30111
:10032000C901CD01D601D101D701DB018091800047
:100330008F77809380000895809180008F7DF9CF22
:1003400080918000877FF5CF84B58F7784BD089535
:1003500084B58F7DFBCF8091B0008F778093B00004
:1003600008958091B0008F7DF9CF809190008F77B4
:10037000809390000895809190008F7DF9CF8091B7
:100380009000877FF5CF8091A0008F778093A000A9
:1003900008958091A0008F7DF9CF8091A000877F84
:1003A000F5CF809120018F7780932001089580916F
:1003B00020018F7DF9CF80912001877FF5CFCF93EA
:1003C000DF93282F30E0F901E456FE4F8491F901C4
:1003D000EE5BFD4FD491F901E450FE4FC491CC2364
:1003E000A1F081110E947801EC2FF0E0EE0FFF1FC9
:1003F000EE51FE4FA591B491EC91ED2381E090E098
:1004000009F480E0DF91CF91089580E090E0FACF89
:100410001F93CF93DF93282F30E0F901E456FE4F6E
:100420008491F901EE5BFD4FD491F901E450FE4F48
:10043000C491CC23A9F0162F81110E947801EC2FD2
:10044000F0E0EE0FFF1FEE57FE4FA591B4918FB76E
:10045000F894EC91111108C0D095DE23DC938FBF86
:10046000DF91CF911F910895DE2BF8CFCF93DF93CB
:1004700090E0FC01EE5BFD4F249184509E4FFC0107
:1004800084918823D1F090E0880F991FFC01E859EE
:10049000FE4FA591B491FC01EE57FE4FC591D4914A
:1004A00061110EC09FB7F8948C91E22FE0958E23D6
:1004B0008C932881E223E8839FBFDF91CF91089539
:1004C0008FB7F894EC91E22BEC938FBFF6CF3FB748
:1004D000F89480911B0290911C02A0911D02B09192
:1004E0001E0226B5A89B05C02F3F19F00196A11D3D
:1004F000B11D3FBFBA2FA92F982F8827BC01CD016E
:10050000620F711D811D911D42E0660F771F881FCC
:10051000991F4A95D1F708958F929F92AF92BF92FB
:10052000CF92DF92EF92FF926B017C010E946702F3
:100530004B015C01C114D104E104F104B9F00E9443
:100540006702681979098A099B09683E7340810529
:10055000910580F321E0C21AD108E108F10888EE84
:10056000880E83E0981EA11CB11CE4CFFF90EF9091
:10057000DF90CF90BF90AF909F908F900895AF92F3
:10058000BF92CF92DF92EF92FF920F931F93CF9380
:10059000DF936C017B018B01040F151FEB015E01E2
:1005A000AE18BF08C017D10759F06991D601ED9177
:1005B000FC910190F081E02DC6011995892B79F706
:1005C000C501DF91CF911F910F91FF90EF90DF90C8
:1005D000CF90BF90AF900895FC01538D448D252F8F
:1005E00030E0842F90E0821B930B541710F0CF96CD
:1005F000089501970895FC01918D828D981761F0FF
:10060000A28DAE0FBF2FB11D5D968C91928D9F5F15
:100610009F73928F90E008958FEF9FEF0895FC01F4
:10062000918D828D981731F0828DE80FF11D858DA7
:1006300090E008958FEF9FEF0895FC01918D228D3A
:10064000892F90E0805C9F4F821B91098F739927BF
:1006500008958FE192E00E941D0321E0892B09F4A7
:1006600020E0822F0895FC01A48DA80FB92FB11DA1
:10067000A35ABF4F2C91848D90E001968F739927D8
:10068000848FA689B7892C93A089B1898C918370B6
:1006900080648C93938D848D981306C00288F389AF
:1006A000E02D80818F7D80830895EF92FF920F93DC
:1006B0001F93CF93DF93EC0181E0888F9B8D8C8D0E
:1006C00098131AC0E889F989808185FF15C09FB702
:1006D000F894EE89FF896083E889F98980818370C5
:1006E000806480839FBF81E090E0DF91CF911F9174
:1006F0000F91FF90EF900895F62E0B8D10E00F5F95
:100700001F4F0F731127E02E8C8D8E110CC00FB66A
:1007100007FCFACFE889F989808185FFF5CFCE0102
:100720000E943303F1CFEB8DEC0FFD2FF11DE35A47
:10073000FF4FF0829FB7F8940B8FEA89FB89808185
:100740008062CFCFCF93DF93EC01888D8823B9F0FF
:10075000AA89BB89E889F9898C9185FD03C08081CC
:1007600086FD0DC00FB607FCF7CF8C9185FFF2CF49
:10077000808185FFEDCFCE010E943303E9CFDF9169
:10078000CF91089580E090E0892B29F00E94290301
:1007900081110E94000080E090E0892B49F080E008
:1007A00090E0892B29F00E94000081110E94000036
:1007B00080E090E0892B49F080E090E0892B29F0DF
:1007C0000E94000081110E94000080E090E0892BCF
:1007D00049F080E090E0892B29F00E94000081110F
:1007E0000C9400000895AF92BF92CF92DF92EF92E7
:1007F000FF920F931F93CF93DF936B017A01EC016C
:10080000CE5EDD4F28813CE0389F8001399F100D7E
:100810001124A0904C03B12C27FF1FC0FB011182B3
:10082000108288818F5F888388819801280F311D0D
:1008300087FD3A95F6012A153B051CF488818C301A
:10084000C4F180819181049680349C4908F473C07E
:10085000F60180819181049670C088819801280FEB
:10086000311D87FD3A952A153B05DCF68881A801E4
:10087000480F511D87FD5A95FA01EE0FFF1FE40F37
:10088000F51FE454FD4F808186FFCBCF8881F801AE
:10089000E80FF11D87FDFA95CF01EE0FFF1FE80F5E
:1008A000F91FE454FD4F808160E08F730E940802BD
:1008B000B8CF808191812881A801420F511D27FD69
:1008C0005A959A01FA01EE0FFF1FE20FF31FE4544D
:1008D000FD4F21813281820F931FF7019183808325
:1008E00088819801280F311D87FD3A95F901EE0F97
:1008F000FF1FE20FF31FE454FD4F808186FF22C0EB
:100900008881080F111D87FD1A95F801EE0FFF1F52
:10091000E00FF11FE454FD4F808161E08F73DF91A0
:10092000CF911F910F91FF90EF90DF90CF90BF90EC
:10093000AF900C94080280E49CE9F70191838083D6
:100940008FEF8883DF91CF911F910F91FF90EF90F0
:10095000DF90CF90BF90AF900895DC0180E06150B0
:1009600090F09D919827E92FEF70F0E0E85BFE4F43
:100970002491E92FE295EF70F0E0E85AFE4FE49100
:10098000822F8E27ECCF0895DC012C911196ED91EA
:10099000FC91F8948181822B81839281322F309552
:1009A0009323928387E090E00197F1F7818183237D
:1009B000818383E290E00197F1F790817894EFECE6
:1009C000F0E03197F1F7922381E009F480E0089597
:1009D000FC0190810180F281E02D292F209560FF9C
:1009E00014C0F8948281822382838181892B818340
:1009F000A3E2B0E01197F1F78281982B928378946B
:100A000087ED90E00197F1F70895F89482818223B1
:100A100082838181892B8183AFEFB0E01197F1F759
:100A20008281982B928378948FE090E0EBCFEF92C5
:100A3000FF920F931F93CF93DF93EC01E62E08E014
:100A400010E0FF24F39461E08E2D8F2109F460E023
:100A5000CE010E94E804FF0C01501109A1F7F8949F
:100A6000E981FA8191818881809589238183E98157
:100A7000FA81928188818095892382837894DF919D
:100A8000CF911F910F91FF90EF900895EF92FF92F9
:100A90000F931F93CF93DF938C017B0165E50E9439
:100AA0001705E70188E0E80EF11C6991C8010E9472
:100AB0001705CE15DF05C9F7DF91CF911F910F9173
:100AC000FF90EF900895FC0190810180F281E02D6C
:100AD000F8948181292F20958223818378943DE7A2
:100AE00043E050E0315029F1DA011197F1F78081AC
:100AF0008923C1F3F8948281822382838181892BA7
:100B000081837894ABE7B7E01197F1F7F89481818E
:100B100082238183A3E1B1E01197F1F780819823CB
:100B200081E009F080E07894E3E6F6E03197F1F7B0
:100B3000089580E008951F920F920FB60F9211242E
:100B40002F933F938F939F93AF93BF9380911702FF
:100B500090911802A0911902B0911A0230911602D8
:100B600023E0230F2D3758F50196A11DB11D2093C9
:100B700016028093170290931802A0931902B09363
:100B80001A0280911B0290911C02A0911D02B0914B
:100B90001E020196A11DB11D80931B0290931C02A1
:100BA000A0931D02B0931E02BF91AF919F918F91B0
:100BB0003F912F910F900FBE0F901F90189526E830
:100BC000230F0296A11DB11DD2CF1F920F920FB617
:100BD0000F9211240BB60F922F933F934F935F9375
:100BE0006F937F938F939F93AF93BF93EF93FF93F5
:100BF0008FE192E00E943303FF91EF91BF91AF919B
:100C00009F918F917F916F915F914F913F912F9124
:100C10000F900BBE0F900FBE0F901F9018951F9254
:100C20000F920FB60F9211240BB60F922F938F9342
:100C30009F93EF93FF93E0912F02F0913002808118
:100C4000E0913502F091360282FD1DC090818091C5
:100C500038028F5F8F7320913902821741F0E09143
:100C60003802F0E0E15EFD4F958F80933802FF91EE
:100C7000EF919F918F912F910F900BBE0F900FBE10
:100C80000F901F9018958081F2CF1F920F920FB690
:100C90000F9211240BB60F922F933F934F935F93B4
:100CA0006F937F938F939F93AF93BF93EF93FF9334
:100CB00048E251E064E271E090E080E00E94F303DA
:100CC000FF91EF91BF91AF919F918F917F916F9124
:100CD0005F914F913F912F910F900BBE0F900FBEE0
:100CE0000F901F9018951F920F920FB60F9211241C
:100CF0000BB60F922F933F934F935F936F937F9316
:100D00008F939F93AF93BF93EF93FF9348EA50E085
:100D100064EA70E083E090E00E94F303FF91EF91BA
:100D2000BF91AF919F918F917F916F915F914F9103
:100D30003F912F910F900BBE0F900FBE0F901F9001
:100D400018951F920F920FB60F9211240BB60F92A7
:100D50002F933F934F935F936F937F938F939F93C3
:100D6000AF93BF93EF93FF9348E950E064E970E0DD
:100D700082E090E00E94F303FF91EF91BF91AF9169
:100D80009F918F917F916F915F914F913F912F91A3
:100D90000F900BBE0F900FBE0F901F9018951F92D3
:100DA0000F920FB60F9211240BB60F922F933F9311
:100DB0004F935F936F937F938F939F93AF93BF9363
:100DC000EF93FF9348E850E064E870E081E090E042
:100DD0000E94F303FF91EF91BF91AF919F918F918B
:100DE0007F916F915F914F913F912F910F900BBE2B
:100DF0000F900FBE0F901F90189510922202109224
:100E0000210288EE93E0A0E0B0E08093230290936B
:100E10002402A0932502B093260284E092E09093EE
:100E2000200280931F0285EC90E090932C02809327
:100E30002B0284EC90E090932E0280932D0280ECA4
:100E400090E09093300280932F0281EC90E0909399
:100E500032028093310282EC90E0909334028093CE
:100E6000330286EC90E09093360280933502109224
:100E700038021092390210923A0210923B0280918D
:100E80004C03803308F061C091E0980F90934C03BD
:100E90008093720390E0FC01EE0FFF1FE80FF91F33
:100EA000E454FD4F88EB9BE09283818360E082E114
:100EB0000E943602E4E5F2E0E491E0936403EEE0A0
:100EC000F2E0E491F0E0EE0FFF1FEE51FE4F85914E
:100ED0009491909366038093650310926F03109230
:100EE00071031092700310926E0310926D031092B2
:100EF0006C0310926B0310926A03109269031092B4
:100F000068031092670310925403109255031092D5
:100F10004D0389E08093500381E0809351038093D7
:100F200052038093530310924E0310926303109266
:100F300062038FEF809360031092610384E693E075
:100F4000909357038093560308958FEF8093720315
:100F5000ADCFCF93DF93CDB7DEB761970FB6F894DF
:100F6000DEBF0FBECDBF789484B5826084BD84B5EA
:100F7000816084BD85B5826085BD85B5816085BD94
:100F800080916E00816080936E001092810080914C
:100F900081008260809381008091810081608093D4
:100FA0008100809180008160809380008091B100F9
:100FB00084608093B1008091B00081608093B00024
:100FC0008091910082608093910080919100816076
:100FD0008093910080919000816080939000809137
:100FE000A10082608093A1008091A1008160809324
:100FF000A1008091A00081608093A00080912101D8
:101000008260809321018091210181608093210180
:101010008091200181608093200180917A0084601A
:1010200080937A0080917A00826080937A00809128
:101030007A00816080937A0080917A008068809342
:101040007A001092C10080917203803308F052C080
:1010500061E089E00E94360280917203282F30E01F
:10106000F901EE0FFF1FE20FF31FE454FD4F9081D3
:10107000907C9960908310927303109274032CE01B
:10108000622F0E94C00A829FB001112430E020E04C
:10109000AB01420F531FFA01EE0FFF1FE40FF51FC4
:1010A000E454FD4F908196FD17C02F5F3F4F2C30C9
:1010B000310571F7813009F0FAC01092800082E0AA
:1010C000809381001092850010928400B19A8091E3
:1010D0006F00826080936F00E09172038E2F90E02A
:1010E000FC01EE0FFF1FE80FF91FE454FD4F808154
:1010F0008064808361E08AE00E94360261E08DE0D6
:101100000E94360261E082E00E94360261E083E0E4
:101110000E94360261E084E00E94360261E085E0D0
:101120000E94360261E086E00E94360261E087E0BC
:101130000E94360261E088E00E94360261E081E1AF
:101140000E94360260E08EE00E94360261E081E19A
:101150000E94080261E084E10E94360260E08FE0B4
:101160000E94360261E084E10E94080261E083E1AE
:101170000E94360260E080E10E94360261E083E175
:101180000E940802E0912F02F091300282E08083F9
:10119000E0912B02F0912C021082E0912D02F0914F
:1011A0002E028FEC808310923702E0913302F0918F
:1011B000340286E08083E0913102F0913202808136
:1011C00080618083E0913102F091320280818860F9
:1011D0008083E0913102F0913202808180688083C7
:1011E000E0913102F091320280818F7D808393E023
:1011F000D92E442443945E018AE0A80EB11CE091EC
:101200005603F091570313861586148612861186AD
:10121000108617821682158214821382109254034C
:101220001092550362E370E080E090E00E948C022F
:101230000091560310915703D8011D968C91882375
:1012400009F461C0F8011386158614868091540351
:10125000811103C0DA94D110D2CF61E08AE00E94FC
:10126000360261E08AE00E94080261E08DE00E949F
:10127000080260E082E00E94080268E873E180E012
:1012800090E00E948C0260E08DE00E94080260E025
:1012900082E00E9408028EE00E94DF018FE00E943F
:1012A000DF0180E10E94DF010E94C203D6CF8230BD
:1012B00061F410929000809391001092950010922A
:1012C000940088BB8093710007CF833069F410923B
:1012D000A00082E08093A1001092A5001092A400CB
:1012E00089BB80937200F8CE8111F6CE1092200156
:1012F00082E08093210110922501109224018ABB83
:1013000080937300E9CEC8010E94630581110AC071
:10131000D8011B961C921B971D961C921D971C961C
:101320001C9294CF60EFC8010E941705EE24E3944D
:10133000912C812CFF24F394C8010E94C404C82E70
:10134000C8010E94C404B1E0CB1274C0813009F01E
:1013500093C0E0E4EF1508F075CFD8011B968C928E
:101360001B97811003C0E1E01D96EC93D801139602
:101370008C911397882309F465CF1396FE013A9652
:10138000055F1F4F7F018D918193A017B107D9F79A
:1013900067E0C7010E94AD049989891349CF809104
:1013A00054038F5F809354038A85883239F008F0A4
:1013B0007AC0803119F0823209F03ACF809155031A
:1013C0008F5F8093550380914D03811125C08091DB
:1013D0005603909157030E946305B701809156030D
:1013E000909157030E94460564EB809156039091BB
:1013F00057030E94170580915603909157030E944E
:10140000C404182F80915603909157030E946305DE
:10141000111102C040924D038091560390915703E1
:101420002A85203109F48AC00E946305811142C0D7
:1014300080E087C0E92DF0E0C81214C0D8011B96E7
:101440008C911B97F816B0F4AE0FBF1F13968C91BA
:101450008E2191F4C12CB8E0BF1518F0D8011C966C
:10146000FC928F2CE00FF11F83819E2D9095892394
:1014700083830AC08F11EECFF801E90DF11D83813E
:101480008E298383CC24C3946C2DC8010E94E80468
:10149000F394EE0C19F49394EE24E394B7E0B915A9
:1014A00008F04ACF56CF8B3309F488CF823409F045
:1014B000BFCE84CFB70180915603909157030E940D
:1014C00046056EEB80915603909157030E941705D5
:1014D0008E010F5F1F4F7801180180905603909086
:1014E000570388E0682E712CC12C55245394C401F5
:1014F0000E94C4048111C528550CB1E06B1A710813
:10150000B1F7F701C1927F01AE16BF0631F78091A6
:101510005603909157030E946305813009F088CFEC
:10152000D8018D918D01811116C0EA16FB06C1F715
:101530007FCF8F3571F08F3709F07ACF8CE001C003
:101540008AE090915003981708F072CE8093500370
:101550006FCE8BE0F6CF68E0C1010E94AD049985A3
:10156000891366CF8D819A859B3311F487FDE6CF71
:101570008F3331F3F0F68F3109F05ACF89E0E1CFA4
:10158000991B79E004C0991F961708F0961B881FD5
:101590007A95C9F780950895EE0FFF1F881F8BBFBE
:1015A0000790F691E02D1994F894FFCF0000000009
:0E15B0005503BF02EC02A2031D03FB020F0352
:020000040003F7
:10E000000D9489F10D94B2F10D94B2F10D94B2F129
:10E010000D94B2F10D94B2F10D94B2F10D94B2F1F0
:10E020000D94B2F10D94B2F10D94B2F10D94B2F1E0
:10E030000D94B2F10D94B2F10D94B2F10D94B2F1D0
:10E040000D94B2F10D94B2F10D94B2F10D94B2F1C0
:10E050000D94B2F10D94B2F10D94B2F10D94B2F1B0
:10E060000D94B2F10D94B2F10D94B2F10D94B2F1A0
:10E070000D94B2F10D94B2F10D94B2F10D94B2F190
:10E080000D94B2F10D94B2F10D94B2F10D94B2F180
:10E090000D94B2F10D94B2F10D94B2F10D94B2F170
:10E0A0000D94B2F10D94B2F10D94B2F10D94B2F160
:10E0B0000D94B2F10D94B2F10D94B2F10D94B2F150
:10E0C0000D94B2F10D94B2F10D94B2F10D94B2F140
:10E0D0000D94B2F10D94B2F10D94B2F10D94B2F130
:10E0E0000D94B2F141546D656761323536300041AF
:10E0F000726475696E6F206578706C6F72657220DE
:10E1000073746B3530305632206279204D4C530099
:10E11000426F6F746C6F616465723E004875683F52
:10E1200000436F6D70696C6564206F6E203D200048
:10E130004350552054797065202020203D20005FF9
:10E140005F4156525F415243485F5F3D2000415658
:10E1500052204C696243205665723D20004743437C
:10E160002056657273696F6E203D20004350552024
:10E1700049442020202020203D20004C6F7720663D
:10E18000757365202020203D20004869676820665F
:10E190007573652020203D200045787420667573D6
:10E1A00065202020203D20004C6F636B2066757336
:10E1B000652020203D20004D617220203720323024
:10E1C000313300312E362E3800342E332E350056A2
:10E1D00023202020414444522020206F7020636F70
:10E1E00064652020202020696E73747275637469E1
:10E1F0006F6E2061646472202020496E74657272B3
:10E20000757074006E6F20766563746F7200726A49
:10E210006D702020006A6D70200057686174207056
:10E220006F72743A00506F7274206E6F7420737541
:10E2300070706F72746564004D7573742062652030
:10E2400061206C6574746572002000577269747483
:10E25000696E672045450052656164696E672045B7
:10E26000450045452065727220636E743D00504F35
:10E27000525400303D5A65726F2061646472003FF1
:10E280003D43505520737461747300403D454550C3
:10E29000524F4D207465737400423D426C696E6B41
:10E2A000204C454400453D44756D70204545505215
:10E2B0004F4D00463D44756D7020464C415348001B
:10E2C000483D48656C70004C3D4C69737420492F83
:10E2D0004F20506F72747300513D51756974005234
:10E2E0003D44756D702052414D00563D73686F7707
:10E2F00020696E7465727275707420566563746FF0
:10E30000727300593D506F727420626C696E6B00BD
:10E310002A0011241FBECFEFD1E2DEBFCDBF01E046
:10E320000CBF12E0A0E0B2E0EEE1FDEF03E00BBFB6
:10E3300002C007900D92A030B107D9F712E0A0E01B
:10E34000B2E001C01D92AE30B107E1F70F9460F367
:10E350000D948DFE01E20EBF0FEF0DBF11241FBE05
:10E360000D9460F30D9400F020E030E040ED57E0B4
:10E3700005C0FA013197F1F72F5F3F4F2817390792
:10E38000C0F308959C01260F311DC901A0E0B0E043
:10E390002F5F3F4FABBFFC018791882361F08093D3
:10E3A000C6008091C00086FFFCCF8091C0008064D1
:10E3B0008093C000EACF08958DE08093C6008091DD
:10E3C000C00086FFFCCF8091C00080648093C000B5
:10E3D0008AE08093C6008091C00086FFFCCF8091C8
:10E3E000C00080648093C00008950F94C2F10F9420
:10E3F000DCF10895FC019081992359F09093C600B7
:10E400008091C00086FFFCCF8091C0008064809323
:10E41000C0003196992379F70895282F982F929567
:10E420009F70892F805D8A3308F0895F8093C600D2
:10E430008091C00086FFFCCF8091C00080648093F3
:10E44000C000822F8F70982F905D9A3308F0995FEB
:10E450009093C6008091C00086FFFCCF8091C000E1
:10E4600080648093C00008959C01FB01853691056E
:10E470001CF46330710594F0C90164E670E00F94F8
:10E480002EFE605D7F4F6093C6008091C00086FFC6
:10E49000FCCF8091C00080648093C0002B30310598
:10E4A00014F43297B4F0C90164E670E00F942EFEC4
:10E4B0006AE070E00F942EFE605D7F4F6093C600AF
:10E4C0008091C00086FFFCCF8091C0008064809363
:10E4D000C000C9016AE070E00F942EFEC0968093E0
:10E4E000C6008091C00086FFFCCF8091C000806490
:10E4F0008093C00008951F93182F8EE692EE60E07F
:10E500000F94C2F11093C6008091C00086FFFCCF2B
:10E510008091C00080648093C0000F94DCF11F9153
:10E5200008952F923F924F925F926F927F928F92B7
:10E530009F92AF92BF92CF92DF92EF92FF920F9392
:10E540001F93DF93CF93CDB7DEB762970FB6F894E2
:10E55000DEBF0FBECDBF382E622ECA01DB015C01CB
:10E560006D01772420E2222E2E010894411C511CBB
:10E570008BC081E0A81680E0B80681E0C80680E084
:10E58000D80628F0C601AA27BB270F940DF2BB2797
:10E59000AD2D9C2D8B2D0F940DF28A2D0F940DF225
:10E5A0002092C6008091C00086FFFCCF8091C00001
:10E5B00080648093C0009DE29093C6008091C0006B
:10E5C00086FFFCCF8091C00080648093C0002092C1
:10E5D000C6008091C00086FFFCCF8091C00080649F
:10E5E0008093C00019828601750188249924A1E0D6
:10E5F0003A1651F03A1620F0B2E03B1661F409C029
:10E600000BBFF701779007C0C7010F9477FE782EF4
:10E6100002C0F7017080872D0F940DF22092C60082
:10E620008091C00086FFFCCF8091C0008064809301
:10E63000C000872D8052F401EF70F0708F3520F408
:10E64000E40DF51D708204C0E40DF51D8EE280839B
:10E650000894E11CF11C011D111D0894811C911CE2
:10E6600090E18916910409F0C2CF80E190E0A0E02A
:10E67000B0E0A80EB91ECA1EDB1E198AC2010F9493
:10E68000FAF10F94DCF16A94662009F072CF629679
:10E690000FB6F894DEBF0FBECDBFCF91DF911F91B3
:10E6A0000F91FF90EF90DF90CF90BF90AF909F9031
:10E6B0008F907F906F905F904F903F902F90089534
:10E6C0002F923F924F925F926F927F928F929F9282
:10E6D000AF92BF92CF92DF92EF92FF920F931F9370
:10E6E000DF93CF93CDB7DEB7CD53D1400FB6F894BB
:10E6F000DEBF0FBECDBF01E20EBF0FEF0DBF94B75F
:10E70000F894A89514BE80916000886180936000A1
:10E7100010926000789493FF05C0E0910002F091A0
:10E7200001021995279A2F9A8091C00082608093E8
:10E73000C00080E18093C40088E18093C1000000A4
:10E74000EE24FF24870144E0A42EB12CCC24DD2448
:10E7500024C0C5010197F1F70894E11CF11C011DCB
:10E76000111D21E2E2162EE4F20620E0020720E06D
:10E77000120718F031E0C32ED12CC801B70127ECE5
:10E780003BE140E050E00F9441FE611571058105C9
:10E79000910519F485B1805885B98091C00087FD35
:10E7A00003C0C114D104A9F2A6014F5F5F4FC25E3E
:10E7B000DE4F59834883CE51D140C25EDE4F8881FF
:10E7C0009981CE51D140019711F00D9410FEC05D9A
:10E7D000DE4F19821882C053D14060E0C15DDE4F28
:10E7E0001882CF52D14088249924C35DDE4F19820C
:10E7F0001882CD52D140C05EDE4F188219821A8233
:10E800001B82C052D140CE5CDE4F188219821A8220
:10E810001B82C253D140EE24FF2487010BBFF701B6
:10E8200007911691C45CDE4F19830883CC53D14005
:10E830000D940BFEC25EDE4F28813981CE51D1404E
:10E840002130310509F52091C600C25EDE4F1982E4
:10E850001882CE51D14022C02F5F3F4F4F4F5F4FA4
:10E86000213082E138078AE7480780E0580780F0C6
:10E87000C45CDE4FE881F981CC53D140EF5FFF4F9C
:10E8800019F0EE27FF27099420E030E040E050E047
:10E890008091C00087FFE0CF2091C600C35DDE4FAE
:10E8A00048815981CD52D1404F5F5F4FC35DDE4FEC
:10E8B00059834883CD52D140213209F063C64A3092
:10E8C000510508F05FC60894811C911C53E0851621
:10E8D000910409F059C600E010E018C081E280936D
:10E8E000C6008091C00086FFFCCF8091C00080648C
:10E8F0008093C0002F5F3F4F2931310579F70F9486
:10E90000DCF10F5F1F4F0530110519F020E030E0FA
:10E91000E5CF10920A0210920B0210920C02109294
:10E920000D02109206021092070210920802109235
:10E930000902109202021092030210920402109235
:10E9400005028FEE90EE60E00F94F5F180E191EE1C
:10E9500060E00F94C2F18091C00087FFFCCF9091DE
:10E96000C600903608F09F759032B8F09093C600BC
:10E970008091C00086FFFCCF8091C00080648093AE
:10E98000C000A0E2A093C6008091C00086FFFCCF2B
:10E990008091C00080648093C000983409F4D7C18E
:10E9A0009934B8F4923409F459C1933458F490333B
:10E9B00019F1903308F4E3C59F33A1F1903409F0C5
:10E9C000DEC5BDC0953409F470C1963409F0D7C5D1
:10E9D00098C1923509F42BC2933538F49C3409F46C
:10E9E000F5C1913509F0CBC518C2963509F445C279
:10E9F000993509F0C4C567C483E792EE62E00F94CD
:10EA0000F5F110920602109207021092080210927D
:10EA1000090210920A0210920B0210920C0210923C
:10EA20000D0213C18FE792EE62E00F94F5F18FEEC5
:10EA300090EE60E00F94F5F181E291EE60E00F94CA
:10EA4000C2F187EB91EE60E00F94F5F180E391EE77
:10EA500060E00F94C2F184EE90EE60E00F94F5F167
:10EA60008FE391EE60E00F94C2F186E090E061E008
:10EA700070E00F9434F20F94DCF18DE591EE60E0DC
:10EA80000F94C2F189EC91EE60E00F94F5F18EE401
:10EA900091EE60E00F94C2F183EC91EE60E00F9490
:10EAA000F5F18CE691EE60E00F94C2F18EE10F94E7
:10EAB0000DF288E90F940DF281E00F940DF20F949E
:10EAC000DCF18BE791EE60E00F94C2F119E0E0E039
:10EAD000F0E010935700E4918E2F0F940DF20F94F5
:10EAE000DCF18AE891EE60E00F94C2F1E3E0F0E03F
:10EAF00010935700E4918E2F0F940DF20F94DCF1D8
:10EB000089E991EE60E00F94C2F1E2E0F0E0109349
:10EB10005700E4918E2F0F940DF20F94DCF188EAE8
:10EB200091EE60E00F94C2F1E1E0F0E01093570045
:10EB30001491812F0F940DF20F94DCF107CF8BE825
:10EB400092EE62E00F94F5F18BE492EE60E00F94A8
:10EB5000F5F10F94DCF100E010E019C0C8016F2D51
:10EB60000F947FFEFF2031F489E492EE60E00F9471
:10EB7000C2F10BC0F092C6008091C00086FFFCCFAE
:10EB80008091C00080648093C0000F5F1F4FC80158
:10EB900081519F41A0E0B0E0ABBFFC01F790BAE229
:10EBA000FB1621F0E2E000301E07C1F60F94DCF105
:10EBB0000F94DCF187E592EE60E00F94F5F10F948D
:10EBC000DCF1CC24DD2400E010E01EC0C8010F946D
:10EBD00077FEF82E882331F489E492EE60E00F94FA
:10EBE000C2F10BC08093C6008091C00086FFFCCFAD
:10EBF0008091C00080648093C000FE1419F00894D6
:10EC0000C11CD11C0F5F1F4FC80181519F41A0E063
:10EC1000B0E0ABBFFC01E790FAE2EF1621F022E092
:10EC20000030120799F60F94DCF10F94DCF182E6C4
:10EC300092EE60E00F94C2F1C60161E070E00F94C3
:10EC400034F20F94DCF10F94DCF110920202109276
:10EC50000302109204021092050278CE89E992EE26
:10EC600062E00F94F5F1279A2F9A16C02F9880E052
:10EC700090E0E0EDF7E03197F1F7019684369105E9
:10EC8000C1F72F9A80E090E0E0EDF7E03197F1F7DF
:10EC9000019684369105C1F78091C00087FFE6CFC9
:10ECA0008091C00087FFFCCF64C485EA92EE62E0E9
:10ECB0000F94F5F140910202509103026091040219
:10ECC0007091050281E020E10F9491F2809102029F
:10ECD00090910302A0910402B091050280509F4FD1
:10ECE000AF4FBF4F8093020290930302A0930402A0
:10ECF000B093050280509041A040B04008F426CE69
:10ED0000A4CF83EB92EE62E00F94F5F140910602FE
:10ED100050910702609108027091090280E020E1A1
:10ED20000F9491F28091060290910702A09108023F
:10ED3000B091090280509F4FAF4FBF4F80930602A2
:10ED400090930702A0930802B0930902FFCD80ECD4
:10ED500092EE62E00F94F5F183E792EE60E00F949B
:10ED6000F5F18FE792EE60E00F94F5F18BE892EE0B
:10ED700060E00F94F5F189E992EE60E00F94F5F10F
:10ED800085EA92EE60E00F94F5F183EB92EE60E09D
:10ED90000F94F5F180EC92EE60E00F94F5F187ECC2
:10EDA00092EE60E00F94F5F188ED92EE60E00F9442
:10EDB000F5F18FED92EE60E00F94F5F18AEE92EEB0
:10EDC00060E00F94F5F183E093EEBDCD87EC92EE19
:10EDD00062E00F94F5F181E40F947BF282E40F94EA
:10EDE0007BF283E40F947BF284E40F947BF285E45E
:10EDF0000F947BF286E40F947BF287E40F947BF20E
:10EE000088E40F947BF28AE40F947BF28BE40F94F6
:10EE10007BF28CE40F947BF299CD88ED92EE62E068
:10EE20000F94F5F1772473948824992409C48FED05
:10EE300092EE62E00F94F5F140910A0250910B02BC
:10EE400060910C0270910D0282E020E10F9491F22A
:10EE500080910A0290910B02A0910C02B0910D02D8
:10EE600080509F4FAF4FBF4F80930A0290930B0289
:10EE7000A0930C02B0930D0269CD8AEE92EE62E08F
:10EE80000F94F5F184EE90EE60E00F94F5F18FECC5
:10EE900091EE60E00F94F5F1662477244301CC5D98
:10EEA000DE4F19821882C452D140D401C301B695F5
:10EEB000A79597958795CA5DDE4F88839983AA8326
:10EEC000BB83C652D140CC5DDE4FA881B981C4520C
:10EED000D1401196CC5DDE4FB983A883C452D14096
:10EEE000CD0162E070E00F9434F2B0E2B093C6005E
:10EEF0008091C00086FFFCCF8091C0008064809329
:10EF0000C000EDE2E093C6008091C00086FFFCCF18
:10EF10008091C00080648093C000F0E2F093C6004E
:10EF20008091C00086FFFCCF8091C00080648093F8
:10EF3000C000CA5DDE4FE880F9800A811B81C6529D
:10EF4000D140BB27A12F902F8F2D0F940DF2CA5DBA
:10EF5000DE4F8881C652D1400F940DF2B0E2FB2EF5
:10EF6000F092C6008091C00086FFFCCF8091C00067
:10EF700080648093C0000DE30093C6008091C000C0
:10EF800086FFFCCF8091C00080648093C00010E2B7
:10EF90001093C6008091C00086FFFCCF8091C00016
:10EFA00080648093C0008BBEF3012791C65DDE4F65
:10EFB0002883CA52D140A22EBB24CC24DD2408943D
:10EFC000611C711C811C911C8BBEF3018791282E42
:10EFD0003324442455240894611C711C811C911C09
:10EFE0008BBEF3013791C55DDE4F3883CB52D140E4
:10EFF0000894611C711C811C911C8BBEF30147910C
:10F00000C45DDE4F4883CC52D140ADEFEA2EAFEF66
:10F01000FA2EAFEF0A2FAFEF1A2F6E0C7F1C801E57
:10F02000911E142D032DF22CEE24EA0CFB1C0C1D5A
:10F030001D1D0F940DF220E22093C6008091C000A8
:10F0400086FFFCCF8091C00080648093C000C65DC5
:10F05000DE4F8881CA52D1400F940DF230E23093D6
:10F06000C6008091C00086FFFCCF8091C000806404
:10F070008093C000C45DDE4F8881CC52D1400F9494
:10F080000DF240E24093C6008091C00086FFFCCFA5
:10F090008091C00080648093C000C55DDE4F888190
:10F0A000CB52D1400F940DF250E25093C6008091A4
:10F0B000C00086FFFCCF8091C00080648093C000B8
:10F0C0008FEFE8168FEFF80680E0080780E018075A
:10F0D00031F484E092EE60E00F94C2F1DFC0D80119
:10F0E000C7018070907CA070B0708050904CA040A0
:10F0F000B040D1F52FEF3FE340E050E0E222F322B1
:10F1000004231523CA5DDE4FA880B980CA80DB8046
:10F11000C652D140AE0CBF1CC01ED11EAA0CBB1CD7
:10F12000CC1CDD1C8EE092EE60E00F94C2F1BB2798
:10F13000A12F902F8F2D0F940DF28E2D0F940DF285
:10F1400030E23093C6008091C00086FFFCCF8091F2
:10F15000C00080648093C0004EE34093C60080915D
:10F16000C00086FFFCCF87C08EE09EEFA0E0B0E03D
:10F17000E822F9220A231B239CE0E91694E9F90608
:10F1800090E0090790E0190709F088C0C45DDE4FE0
:10F19000A881CC52D140EA2EFF2400E010E0102FCD
:10F1A0000F2DFE2CEE24C55DDE4FB881CB52D14031
:10F1B000EB0EF11C011D111DD601C501817090706F
:10F1C000A070B070DC0199278827E80EF91E0A1F8D
:10F1D0001B1F20EF30E040E050E0A222B322C42207
:10F1E000D52241E1AA0CBB1CCC1CDD1C4A95D1F7F1
:10F1F000EA0CFB1C0C1D1D1D81E090E0A0E0B0E0BE
:10F20000282239224A225B2235E1220C331C441C7D
:10F21000551C3A95D1F7E20CF31C041D151D57013E
:10F220006801AA0CBB1CCC1CDD1C85E192EE60E0E1
:10F230000F94C2F1C801AA27BB270F940DF2BB2778
:10F24000A12F902F8F2D0F940DF28E2D0F940DF274
:10F2500090E29093C6008091C00086FFFCCF809121
:10F26000C00080648093C000AEE3A093C60080918C
:10F27000C00086FFFCCF8091C00080648093C000F6
:10F28000C601AA27BB270F940DF2BB27AD2D9C2DDD
:10F290008B2D0F940DF28A2D0F940DF20F94DCF14B
:10F2A000CC5DDE4FE881F981C452D140F99709F471
:10F2B0004DCBF4E0EF2EF12C012D112D6E0C7F1CA7
:10F2C000801E911EF2CD83E093EE62E00F94F5F183
:10F2D0008AE192EE60E00F94C2F18091C00087FF56
:10F2E000FCCF1091C6001F751093C6008091C0001E
:10F2F00086FFFCCF8091C00080648093C0000F9493
:10F30000DCF1812F81548A3108F036C1163409F4BA
:10F3100095C0173490F4133409F44EC0143430F40B
:10F320001134F1F0123409F01DC130C0143409F465
:10F3300059C0153409F016C16BC01A3409F4C4C0A1
:10F340001B3438F4173409F48FC0183409F00AC19B
:10F35000A1C01B3409F4D2C01C3409F003C1E8C0B9
:10F360008FEF81B90DC082B1809582B980E090E0C5
:10F37000E0EDF7E03197F1F70196883C9105C1F790
:10F380008091C00087FFEFCF12B8EFC08FEF84B934
:10F390000DC085B1809585B980E090E0E0EDF7E0A3
:10F3A0003197F1F70196883C9105C1F78091C00033
:10F3B00087FFEFCF15B8D9C08FEF87B90DC088B1DF
:10F3C000809588B980E090E0E0EDF7E03197F1F7C3
:10F3D0000196883C9105C1F78091C00087FFEFCF6F
:10F3E00018B8C3C08FEF8AB90DC08BB180958BB9A7
:10F3F00080E090E0E0EDF7E03197F1F70196883C8E
:10F400009105C1F78091C00087FFEFCF1BB8ADC059
:10F410008FEF8DB90DC08EB180958EB980E090E0F0
:10F42000E0EDF7E03197F1F70196883C9105C1F7DF
:10F430008091C00087FFEFCF1EB897C08FEF80BBD1
:10F440000DC081B3809581BB80E090E0E0EDF7E0F6
:10F450003197F1F70196883C9105C1F78091C00082
:10F4600087FFEFCF11BA81C08FEF83BB0DC084B38C
:10F47000809584BB80E090E0E0EDF7E03197F1F714
:10F480000196883C9105C1F78091C00087FFEFCFBE
:10F4900014BA6BC08FEF809301010FC080910201FD
:10F4A00080958093020180E090E0E0EDF7E03197F5
:10F4B000F1F70196883C9105C1F78091C00087FF64
:10F4C000EDCF1092020151C08FEF809304010FC065
:10F4D0008091050180958093050180E090E0E0ED4A
:10F4E000F7E03197F1F70196883C9105C1F78091DB
:10F4F000C00087FFEDCF1092050137C08FEF8093DA
:10F5000007010FC08091080180958093080180E079
:10F5100090E0E0EDF7E03197F1F70196883C910536
:10F52000C1F78091C00087FFEDCF109208011DC088
:10F530008FEF80930A010FC080910B01809580931B
:10F540000B0180E090E0E0EDF7E03197F1F70196F4
:10F55000883C9105C1F78091C00087FFEDCF1092E4
:10F560000B0103C085E292EEEEC98091C00087FFD7
:10F57000FCCF8091C600EAC988E392EEE4C98CE131
:10F5800091EEE1C988249924933011F1943028F444
:10F59000913089F09230B8F408C0953061F195301F
:10F5A000F0F0963009F048C043C02B3109F042C951
:10F5B00091E06BE13FC96227C15DDE4F2883CF52E6
:10F5C000D14092E037C9B22FA0E0622793E032C960
:10F5D000822F90E0A82BB92B622794E02BC92E3004
:10F5E00009F039C3622795E0C05DDE4F19821882A9
:10F5F000C053D1401FC9E1E0F0E0EC0FFD1FC05D3A
:10F60000DE4F08811981C053D140E00FF11F2083E4
:10F610000F5F1F4FC05DDE4F19830883C053D14079
:10F6200062270A171B0709F005C9D80196E002C92D
:10F63000261709F010C303C0973009F0FBC87724E0
:10F640009981933109F412C19431C8F4963009F4C8
:10F65000D8C0973050F4923009F406C1933009F4C1
:10F660006DC0913009F059C253C0913109F477C08F
:10F67000923108F0BBC0903109F04FC2F5C098310B
:10F6800009F487C0993150F4953109F4EFC09531F0
:10F6900008F4C6C1963109F040C2C2C19A3109F4DA
:10F6A0006CC09A3108F491C09B3109F45BC09D3164
:10F6B00009F033C29D81903359F48F81882311F46E
:10F6C0009EE11CC0813011F091E018C098E916C08D
:10F6D000892F807591F0903539F4E0E0F0E089E011
:10F6E0008093570094910AC0983539F4E3E0F0E034
:10F6F00089E080935700949101C090E01A821B82A8
:10F700008D818C831D829E831F8227E030E009C299
:10F710001A8288E08B8381E48C8386E58D8382E581
:10F720008E8389E48F8383E5888780E589878FE5E9
:10F730008A8782E38B872BE030E0F3C18A818139AD
:10F7400041F0823941F0803911F48FE005C080E04A
:10F7500003C082E001C08AE01A828B8344C0772410
:10F76000739482C08D81882311F48EE12CC0813086
:10F7700011F081E028C088E926C01A82E1E0F0E0BB
:10F7800089E08093570084918B831C8224E030E0D1
:10F79000C8C18B81803589F48C81883039F4E2E0EE
:10F7A000F0E089E08093570084910DC0E0E0F0E044
:10F7B00089E080935700849106C0E3E0F0E089E09F
:10F7C0008093570084911A82DFCF8D81836C99E0FA
:10F7D000E1E0F0E0082E90935700E89507B600FCB2
:10F7E000FDCF1A821B8223E030E09BC180EC8A832C
:10F7F000CE5CDE4F188219821A821B82C253D1401E
:10F800008EC18A8190E0A0E0B0E0582F44273327D2
:10F8100022278B8190E0A0E0B0E0DC0199278827C7
:10F82000282B392B4A2B5B2B8D8190E0A0E0B0E098
:10F83000282B392B4A2B5B2B8C8190E0A0E0B0E089
:10F84000BA2FA92F982F8827282B392B4A2B5B2BCF
:10F85000220F331F441F551FC05EDE4F288339839C
:10F860004A835B83C052D1401A8259C13A81C95C34
:10F87000DE4F3883C753D140CA5CDE4F1882C6536F
:10F88000D1408B81C82EDD24CA5CDE4F488159816E
:10F89000C653D140C42AD52A933109F082C0CE5C28
:10F8A000DE4F88819981AA81BB81C253D1408050AB
:10F8B000904CA340B04030F583E0CE5CDE4FE88052
:10F8C000F9800A811B81C253D140F70100935B008C
:10F8D00080935700E89507B600FCFDCFCE5CDE4F65
:10F8E000088119812A813B81C253D14000501F4FAA
:10F8F0002F4F3F4FCE5CDE4F088319832A833B8313
:10F90000C253D140C05EDE4F488159816A817B81FC
:10F91000C052D140DE011B9631E08C9111962C91A2
:10F9200011971296C75CDE4F2883C953D140C85C3B
:10F93000DE4F1882C853D14090E0C85CDE4FE881AA
:10F94000F981C853D1408E2B9F2B0C01FA01609393
:10F950005B0030935700E89511244E5F5F4F6F4F67
:10F960007F4F0EEFE02E0FEFF02ECE0CDF1CC114F8
:10F97000D10499F685E0C05EDE4F088119812A81A5
:10F980003B81C052D140F80120935B008093570027
:10F99000E89507B600FCFDCF81E180935700E8951C
:10F9A00035C0C05EDE4F88819981AA81BB81C0527B
:10F9B000D140B695A795979587957C018601ABE0D8
:10F9C000AA2EB12CAC0EBD1E0BC0D5016D915D01F0
:10F9D000C7010F947FFE0894E11CF11C01501040F8
:10F9E0000115110591F7A60160E070E0440F551F65
:10F9F000661F771FC05EDE4FE880F9800A811B8199
:10FA0000C052D1404E0D5F1D601F711F1A82C05E33
:10FA1000DE4F488359836A837B83C052D1407FC0C5
:10FA2000FA80C55CDE4FF882CB53D140C65CDE4F16
:10FA30001882CA53D1408B81C82EDD24C65CDE4FAC
:10FA400008811981CA53D140C02AD12A1A828981DA
:10FA5000BE016D5F7F4F843121F59601C05EDE4FA0
:10FA6000E880F9800A811B81C052D1400BBFF701A9
:10FA700087919691DB018C9311969C936E5F7F4FDB
:10FA8000D801C7010296A11DB11DC05EDE4F88835B
:10FA90009983AA83BB83C052D14022503040F1F6F3
:10FAA00036C0C05EDE4F288139814A815B81C052F9
:10FAB000D1400894C108D108760100E010E0089414
:10FAC000C11CD11C0894E11CF11C011D111DE20E8A
:10FAD000F31E041F151F21BDBB27A52F942F832FB5
:10FAE00082BD2F5F3F4F4F4F5F4FF89A80B5DB01CC
:10FAF0008D93BD012E153F054007510761F7C05E8C
:10FB0000DE4F288339834A835B83C052D1409601FC
:10FB10002D5F3F4FFB01108204C080EC8A8322E0FE
:10FB200030E08BE18093C6008091C00086FFFCCF5F
:10FB30008091C00080648093C000C15DDE4FF88179
:10FB4000CF52D140F093C6008091C00086FFFCCF19
:10FB50008091C00080648093C000432F3093C60022
:10FB60008091C00086FFFCCF8091C00080648093AC
:10FB7000C000922F2093C6008091C00086FFFCCF6A
:10FB80008091C00080648093C0008EE08093C600A6
:10FB90008091C00086FFFCCF8091C000806480937C
:10FBA000C00065E1C15DDE4FE880CF52D1406E25D7
:10FBB00069276427FE01319610C090819093C6009A
:10FBC0008091C00086FFFCCF31968091C000806498
:10FBD0008093C0006927215030402115310569F715
:10FBE0006093C6008091C00086FFFCCF8091C0006A
:10FBF00080648093C00085B1805885B9772081F4F6
:10FC0000C15DDE4F0881CF52D1400F5FC15DDE4F35
:10FC10000883CF52D14090E0A0E0B0E00D941AF4F8
:10FC200027982F9880E090E020ED37E0F901319798
:10FC3000F1F7019684369105C9F700008091C00064
:10FC40008D7F8093C00081E180935700E895EE2777
:10FC5000FF270994FFCF90E00D941AF497FB092E2B
:10FC600007260AD077FD04D02ED006D000201AF443
:10FC7000709561957F4F0895F6F7909581959F4F08
:10FC80000895A1E21A2EAA1BBB1BFD010DC0AA1FDD
:10FC9000BB1FEE1FFF1FA217B307E407F50720F0F5
:10FCA000A21BB30BE40BF50B661F771F881F991F70
:10FCB0001A9469F760957095809590959B01AC01B9
:10FCC000BD01CF010895AA1BBB1B51E107C0AA1FAC
:10FCD000BB1FA617B70710F0A61BB70B881F991FED
:10FCE0005A95A9F780959095BC01CD010895F99991
:10FCF000FECF92BD81BDF89A992780B50895262F31
:10FD0000F999FECF1FBA92BD81BD20BD0FB6F89400
:0EFD1000FA9AF99A0FBE01960895F894FFCF63
:00000001FF
