:100000000C9445010C9476010C9476010C947601C5
:100010000C9476010C9476010C9476010C94760184
:100020000C9476010C9476010C9476010C94760174
:100030000C9476010C9476010C9476010C94760164
:100040000C9476010C94CF060C9476010C947601F6
:100050000C9476010C9476010C9476010C949B051B
:100060000C9476010C940F060C94E5050C94760123
:100070000C9476010C9476010C9476010C94760124
:100080000C94A1060C9476010C9476010C947601E4
:100090000C9476010C9476010C9476010C94760104
:1000A0000C9476010C9476010C9473060C947601F2
:1000B0000C9476010C9476010C9476010C94450610
:1000C0000C9476010C9476010C9476010C947601D4
:1000D0000C9476010C9476010C9476010C947601C4
:1000E0000C9476010C94CD010C94A8010C94B501EC
:1000F0000C94A0010C94DB010C94AB010C94C9018D
:100100000C94A4010C94BB010C94FD060C94D10139
:100110000C94BF010C94EC020C94B1010C945503A7
:100120000C94C3010C94D7010C94BF020C94FB02F5
:100130000C949C010C941D030C94D6010C940F0399
:100140000C94A2030C949601005EBCE2613FDD8337
:10015000C29C7E20A3FD1F41009D23BE46DB65F8A7
:100160008C11AF32CA57E974000021002400270027
:100170002A002D00300033000101000004010701B6
:100180000A0100002200250028002B002E0031006B
:10019000340002010000050108010B0100000A0BF8
:1001A00002090C0D0E080703040100000000000006
:1001B000000000000000000000000000000000003F
:1001C00000000000000000001211100000000000FC
:1001D000000000000000000000000000000000001F
:1001E0000000000020002300260029002C002F0022
:1001F00032000001000003010601090105050505A3
:10020000070508080808020202020A0A080804048E
:1002100004040101010101010101030303030303BC
:100220000303040707070C0C0C0C0C0C0C0C02024B
:10023000020206060606060606060B0B0B0B0B0B48
:100240000B0B0102102020080810204010204080D5
:10025000020102010804020101020408102040808A
:100260008040201008040201800402018040201018
:100270000804020108040201010204081020408061
:100280000102040810204080FD0611241FBECFEF9C
:10029000D1E2DEBFCDBF00E00CBF12E0A0E0B2E0D3
:1002A000ECEAF5E100E00BBF02C007900D92A2312D
:1002B000B107D9F723E0A2E1B2E001C01D92A53752
:1002C000B207E1F711E0C5E4D1E000E006C02197F4
:1002D0000109802FFE010E94CC0AC434D10780E0BE
:1002E0000807A9F70E94A9070C94D40A0C940000EF
:1002F0008150823108F05AC0E82FF0E08827EC578F
:10030000FE4F8F4F0C94CC0AA401A80196019C01CA
:10031000A001D601AB01B101B501BB01BF01C30111
:10032000C901CD01D601D101D701DB018091800047
:100330008F77809380000895809180008F7DF9CF22
:1003400080918000877FF5CF84B58F7784BD089535
:1003500084B58F7DFBCF8091B0008F778093B00004
:1003600008958091B0008F7DF9CF809190008F77B4
:10037000809390000895809190008F7DF9CF8091B7
:100380009000877FF5CF8091A0008F778093A000A9
:1003900008958091A0008F7DF9CF8091A000877F84
:1003A000F5CF809120018F7780932001089580916F
:1003B00020018F7DF9CF80912001877FF5CFCF93EA
:1003C000DF93282F30E0F901E456FE4F8491F901C4
:1003D000EE5BFD4FD491F901E450FE4FC491CC2364
:1003E000A1F081110E947801EC2FF0E0EE0FFF1FC9
:1003F000EE51FE4FA591B491EC91ED2381E090E098
:1004000009F480E0DF91CF91089580E090E0FACF89
:100410001F93CF93DF93282F30E0F901E456FE4F6E
:100420008491F901EE5BFD4FD491F901E450FE4F48
:10043000C491CC23A9F0162F81110E947801EC2FD2
:10044000F0E0EE0FFF1FEE57FE4FA591B4918FB76E
:10045000F894EC91111108C0D095DE23DC938FBF86
:10046000DF91CF911F910895DE2BF8CFCF93DF93CB
:1004700090E0FC01EE5BFD4F249184509E4FFC0107
:1004800084918823D1F090E0880F991FFC01E859EE
:10049000FE4FA591B491FC01EE57FE4FC591D4914A
:1004A00061110EC09FB7F8948C91E22FE0958E23D6
:1004B0008C932881E223E8839FBFDF91CF91089539
:1004C0008FB7F894EC91E22BEC938FBFF6CF3FB748
:1004D000F89480911B0290911C02A0911D02B09192
:1004E0001E0226B5A89B05C02F3F19F00196A11D3D
:1004F000B11D3FBFBA2FA92F982F8827BC01CD016E
:10050000620F711D811D911D42E0660F771F881FCC
:10051000991F4A95D1F708958F929F92AF92BF92FB
:10052000CF92DF92EF92FF926B017C010E946702F3
:100530004B015C01C114D104E104F104B9F00E9443
:100540006702681979098A099B09683E7340810529
:10055000910580F321E0C21AD108E108F10888EE84
:10056000880E83E0981EA11CB11CE4CFFF90EF9091
:10057000DF90CF90BF90AF909F908F900895AF92F3
:10058000BF92CF92DF92EF92FF920F931F93CF9380
:10059000DF936C017B018B01040F151FEB015E01E2
:1005A000AE18BF08C017D10759F06991D601ED9177
:1005B000FC910190F081E02DC6011995892B79F706
:1005C000C501DF91CF911F910F91FF90EF90DF90C8
:1005D000CF90BF90AF900895FC01538D448D252F8F
:1005E00030E0842F90E0821B930B541710F0CF96CD
:1005F000089501970895FC01918D828D981761F0FF
:10060000A28DAE0FBF2FB11D5D968C91928D9F5F15
:100610009F73928F90E008958FEF9FEF0895FC01F4
:10062000918D828D981731F0828DE80FF11D858DA7
:1006300090E008958FEF9FEF0895FC01918D228D3A
:10064000892F90E0805C9F4F821B91098F739927BF
:1006500008958FE192E00E941D0321E0892B09F4A7
:1006600020E0822F0895FC01A48DA80FB92FB11DA1
:10067000A35ABF4F2C91848D90E001968F739927D8
:10068000848FA689B7892C93A089B1898C918370B6
:1006900080648C93938D848D981306C00288F389AF
:1006A000E02D80818F7D80830895EF92FF920F93DC
:1006B0001F93CF93DF93EC0181E0888F9B8D8C8D0E
:1006C00098131AC0E889F989808185FF15C09FB702
:1006D000F894EE89FF896083E889F98980818370C5
:1006E000806480839FBF81E090E0DF91CF911F9174
:1006F0000F91FF90EF900895F62E0B8D10E00F5F95
:100700001F4F0F731127E02E8C8D8E110CC00FB66A
:1007100007FCFACFE889F989808185FFF5CFCE0102
:100720000E943303F1CFEB8DEC0FFD2FF11DE35A47
:10073000FF4FF0829FB7F8940B8FEA89FB89808185
:100740008062CFCFCF93DF93EC01888D8823B9F0FF
:10075000AA89BB89E889F9898C9185FD03C08081CC
:1007600086FD0DC00FB607FCF7CF8C9185FFF2CF49
:10077000808185FFEDCFCE010E943303E9CFDF9169
:10078000CF91089580E090E0892B29F00E94290301
:1007900081110E94000080E090E0892B49F080E008
:1007A00090E0892B29F00E94000081110E94000036
:1007B00080E090E0892B49F080E090E0892B29F0DF
:1007C0000E94000081110E94000080E090E0892BCF
:1007D00049F080E090E0892B29F00E94000081110F
:1007E0000C9400000895AF92BF92CF92DF92EF92E7
:1007F000FF920F931F93CF93DF936B017A01EC016C
:10080000CE5EDD4F28813CE0389F8001399F100D7E
:100810001124A0904C03B12C27FF1FC0FB011182B3
:10082000108288818F5F888388819801280F311D0D
:1008300087FD3A95F6012A153B051CF488818C301A
:10084000C4F180819181049680349C4908F473C07E
:10085000F60180819181049670C088819801280FEB
:10086000311D87FD3A952A153B05DCF68881A801E4
:10087000480F511D87FD5A95FA01EE0FFF1FE40F37
:10088000F51FE454FD4F808186FFCBCF8881F801AE
:10089000E80FF11D87FDFA95CF01EE0FFF1FE80F5E
:1008A000F91FE454FD4F808160E08F730E940802BD
:1008B000B8CF808191812881A801420F511D27FD69
:1008C0005A959A01FA01EE0FFF1FE20FF31FE4544D
:1008D000FD4F21813281820F931FF7019183808325
:1008E00088819801280F311D87FD3A95F901EE0F97
:1008F000FF1FE20FF31FE454FD4F808186FF22C0EB
:100900008881080F111D87FD1A95F801EE0FFF1F52
:10091000E00FF11FE454FD4F808161E08F73DF91A0
:10092000CF911F910F91FF90EF90DF90CF90BF90EC
:10093000AF900C94080280E49CE9F70191838083D6
:100940008FEF8883DF91CF911F910F91FF90EF90F0
:10095000DF90CF90BF90AF900895DC0180E06150B0
:1009600090F09D919827E92FEF70F0E0E85BFE4F43
:100970002491E92FE295EF70F0E0E85AFE4FE49100
:10098000822F8E27ECCF0895DC012C911196ED91EA
:10099000FC91F8948181822B81839281322F309552
:1009A0009323928387E090E00197F1F7818183237D
:1009B000818383E290E00197F1F790817894EFECE6
:1009C000F0E03197F1F7922381E009F480E0089597
:1009D000FC0190810180F281E02D292F209560FF9C
:1009E00014C0F8948281822382838181892B818340
:1009F000A3E2B0E01197F1F78281982B928378946B
:100A000087ED90E00197F1F70895F89482818223B1
:100A100082838181892B8183AFEFB0E01197F1F759
:100A20008281982B928378948FE090E0EBCFEF92C5
:100A3000FF920F931F93CF93DF93EC01E62E08E014
:100A400010E0FF24F39461E08E2D8F2109F460E023
:100A5000CE010E94E804FF0C01501109A1F7F8949F
:100A6000E981FA8191818881809589238183E98157
:100A7000FA81928188818095892382837894DF919D
:100A8000CF911F910F91FF90EF900895EF92FF92F9
:100A90000F931F93CF93DF938C017B0165E50E9439
:100AA0001705E70188E0E80EF11C6991C8010E9472
:100AB0001705CE15DF05C9F7DF91CF911F910F9173
:100AC000FF90EF900895FC0190810180F281E02D6C
:100AD000F8948181292F20958223818378943DE7A2
:100AE00043E050E0315029F1DA011197F1F78081AC
:100AF0008923C1F3F8948281822382838181892BA7
:100B000081837894ABE7B7E01197F1F7F89481818E
:100B100082238183A3E1B1E01197F1F780819823CB
:100B200081E009F080E07894E3E6F6E03197F1F7B0
:100B3000089580E008951F920F920FB60F9211242E
:100B40002F933F938F939F93AF93BF9380911702FF
:100B500090911802A0911902B0911A0230911602D8
:100B600023E0230F2D3758F50196A11DB11D2093C9
:100B700016028093170290931802A0931902B09363
:100B80001A0280911B0290911C02A0911D02B0914B
:100B90001E020196A11DB11D80931B0290931C02A1
:100BA000A0931D02B0931E02BF91AF919F918F91B0
:100BB0003F912F910F900FBE0F901F90189526E830
:100BC000230F0296A11DB11DD2CF1F920F920FB617
:100BD0000F9211240BB60F922F933F934F935F9375
:100BE0006F937F938F939F93AF93BF93EF93FF93F5
:100BF0008FE192E00E943303FF91EF91BF91AF919B
:100C00009F918F917F916F915F914F913F912F9124
:100C10000F900BBE0F900FBE0F901F9018951F9254
:100C20000F920FB60F9211240BB60F922F938F9342
:100C30009F93EF93FF93E0912F02F0913002808118
:100C4000E0913502F091360282FD1DC090818091C5
:100C500038028F5F8F7320913902821741F0E09143
:100C60003802F0E0E15EFD4F958F80933802FF91EE
:100C7000EF919F918F912F910F900BBE0F900FBE10
:100C80000F901F9018958081F2CF1F920F920FB690
:100C90000F9211240BB60F922F933F934F935F93B4
:100CA0006F937F938F939F93AF93BF93EF93FF9334
:100CB00048E251E064E271E090E080E00E94F303DA
:100CC000FF91EF91BF91AF919F918F917F916F9124
:100CD0005F914F913F912F910F900BBE0F900FBEE0
:100CE0000F901F9018951F920F920FB60F9211241C
:100CF0000BB60F922F933F934F935F936F937F9316
:100D00008F939F93AF93BF93EF93FF9348EA50E085
:100D100064EA70E083E090E00E94F303FF91EF91BA
:100D2000BF91AF919F918F917F916F915F914F9103
:100D30003F912F910F900BBE0F900FBE0F901F9001
:100D400018951F920F920FB60F9211240BB60F92A7
:100D50002F933F934F935F936F937F938F939F93C3
:100D6000AF93BF93EF93FF9348E950E064E970E0DD
:100D700082E090E00E94F303FF91EF91BF91AF9169
:100D80009F918F917F916F915F914F913F912F91A3
:100D90000F900BBE0F900FBE0F901F9018951F92D3
:100DA0000F920FB60F9211240BB60F922F933F9311
:100DB0004F935F936F937F938F939F93AF93BF9363
:100DC000EF93FF9348E850E064E870E081E090E042
:100DD0000E94F303FF91EF91BF91AF919F918F918B
:100DE0007F916F915F914F913F912F910F900BBE2B
:100DF0000F900FBE0F901F90189510922202109224
:100E0000210288EE93E0A0E0B0E08093230290936B
:100E10002402A0932502B093260284E092E09093EE
:100E2000200280931F0285EC90E090932C02809327
:100E30002B0284EC90E090932E0280932D0280ECA4
:100E400090E09093300280932F0281EC90E0909399
:100E500032028093310282EC90E0909334028093CE
:100E6000330286EC90E09093360280933502109224
:100E700038021092390210923A0210923B0280918D
:100E80004C03803308F061C091E0980F90934C03BD
:100E90008093720390E0FC01EE0FFF1FE80FF91F33
:100EA000E454FD4F88EB9BE09283818360E082E114
:100EB0000E943602E4E5F2E0E491E0936403EEE0A0
:100EC000F2E0E491F0E0EE0FFF1FEE51FE4F85914E
:100ED0009491909366038093650310926F03109230
:100EE00071031092700310926E0310926D031092B2
:100EF0006C0310926B0310926A03109269031092B4
:100F000068031092670310925403109255031092D5
:100F10004D0389E08093500381E0809351038093D7
:100F200052038093530310924E0310926303109266
:100F300062038FEF809360031092610384E693E075
:100F4000909357038093560308958FEF8093720315
:100F5000ADCFCF93DF93CDB7DEB761970FB6F894DF
:100F6000DEBF0FBECDBF789484B5826084BD84B5EA
:100F7000816084BD85B5826085BD85B5816085BD94
:100F800080916E00816080936E001092810080914C
:100F900081008260809381008091810081608093D4
:100FA0008100809180008160809380008091B100F9
:100FB00084608093B1008091B00081608093B00024
:100FC0008091910082608093910080919100816076
:100FD0008093910080919000816080939000809137
:100FE000A10082608093A1008091A1008160809324
:100FF000A1008091A00081608093A00080912101D8
:101000008260809321018091210181608093210180
:101010008091200181608093200180917A0084601A
:1010200080937A0080917A00826080937A00809128
:101030007A00816080937A0080917A008068809342
:101040007A001092C10080917203803308F052C080
:1010500061E089E00E94360280917203282F30E01F
:10106000F901EE0FFF1FE20FF31FE454FD4F9081D3
:10107000907C9960908310927303109274032CE01B
:10108000622F0E94C00A829FB001112430E020E04C
:10109000AB01420F531FFA01EE0FFF1FE40FF51FC4
:1010A000E454FD4F908196FD17C02F5F3F4F2C30C9
:1010B000310571F7813009F0FAC01092800082E0AA
:1010C000809381001092850010928400B19A8091E3
:1010D0006F00826080936F00E09172038E2F90E02A
:1010E000FC01EE0FFF1FE80FF91FE454FD4F808154
:1010F0008064808361E08AE00E94360261E08DE0D6
:101100000E94360261E082E00E94360261E083E0E4
:101110000E94360261E084E00E94360261E085E0D0
:101120000E94360261E086E00E94360261E087E0BC
:101130000E94360261E088E00E94360261E081E1AF
:101140000E94360260E08EE00E94360261E081E19A
:101150000E94080261E084E10E94360260E08FE0B4
:101160000E94360261E084E10E94080261E083E1AE
:101170000E94360260E080E10E94360261E083E175
:101180000E940802E0912F02F091300282E08083F9
:10119000E0912B02F0912C021082E0912D02F0914F
:1011A0002E028FEC808310923702E0913302F0918F
:1011B000340286E08083E0913102F0913202808136
:1011C00080618083E0913102F091320280818860F9
:1011D0008083E0913102F0913202808180688083C7
:1011E000E0913102F091320280818F7D808393E023
:1011F000D92E442443945E018AE0A80EB11CE091EC
:101200005603F091570313861586148612861186AD
:10121000108617821682158214821382109254034C
:101220001092550362E370E080E090E00E948C022F
:101230000091560310915703D8011D968C91882375
:1012400009F461C0F8011386158614868091540351
:10125000811103C0DA94D110D2CF61E08AE00E94FC
:10126000360261E08AE00E94080261E08DE00E949F
:10127000080260E082E00E94080268E873E180E012
:1012800090E00E948C0260E08DE00E94080260E025
:1012900082E00E9408028EE00E94DF018FE00E943F
:1012A000DF0180E10E94DF010E94C203D6CF8230BD
:1012B00061F410929000809391001092950010922A
:1012C000940088BB8093710007CF833069F410923B
:1012D000A00082E08093A1001092A5001092A400CB
:1012E00089BB80937200F8CE8111F6CE1092200156
:1012F00082E08093210110922501109224018ABB83
:1013000080937300E9CEC8010E94630581110AC071
:10131000D8011B961C921B971D961C921D971C961C
:101320001C9294CF60EFC8010E941705EE24E3944D
:10133000912C812CFF24F394C8010E94C404C82E70
:10134000C8010E94C404B1E0CB1274C0813009F01E
:1013500093C0E0E4EF1508F075CFD8011B968C928E
:101360001B97811003C0E1E01D96EC93D801139602
:101370008C911397882309F465CF1396FE013A9652
:10138000055F1F4F7F018D918193A017B107D9F79A
:1013900067E0C7010E94AD049989891349CF809104
:1013A00054038F5F809354038A85883239F008F0A4
:1013B0007AC0803119F0823209F03ACF809155031A
:1013C0008F5F8093550380914D03811125C08091DB
:1013D0005603909157030E946305B701809156030D
:1013E000909157030E94460564EB809156039091BB
:1013F00057030E94170580915603909157030E944E
:10140000C404182F80915603909157030E946305DE
:10141000111102C040924D038091560390915703E1
:101420002A85203109F48AC00E946305811142C0D7
:1014300080E087C0E92DF0E0C81214C0D8011B96E7
:101440008C911B97F816B0F4AE0FBF1F13968C91BA
:101450008E2191F4C12CB8E0BF1518F0D8011C966C
:10146000FC928F2CE00FF11F83819E2D9095892394
:1014700083830AC08F11EECFF801E90DF11D83813E
:101480008E298383CC24C3946C2DC8010E94E80468
:10149000F394EE0C19F49394EE24E394B7E0B915A9
:1014A00008F04ACF56CF8B3309F488CF823409F045
:1014B000BFCE84CFB70180915603909157030E940D
:1014C00046056EEB80915603909157030E941705D5
:1014D0008E010F5F1F4F7801180180905603909086
:1014E000570388E0682E712CC12C55245394C401F5
:1014F0000E94C4048111C528550CB1E06B1A710813
:10150000B1F7F701C1927F01AE16BF0631F78091A6
:101510005603909157030E946305813009F088CFEC
:10152000D8018D918D01811116C0EA16FB06C1F715
:101530007FCF8F3571F08F3709F07ACF8CE001C003
:101540008AE090915003981708F072CE8093500370
:101550006FCE8BE0F6CF68E0C1010E94AD049985A3
:10156000891366CF8D819A859B3311F487FDE6CF71
:101570008F3331F3F0F68F3109F05ACF89E0E1CFA4
:10158000991B79E004C0991F961708F0961B881FD5
:101590007A95C9F780950895EE0FFF1F881F8BBFBE
:0C15A0000790F691E02D1994F894FFCF0D
:1015AC00000000005503BF02EC02A2031D03FB0266
:0215BC000F031B
:00000001FF
